:100000000C9461000C9489000C9489000C94890074
:100010000C9489000C9489000C9489000C9489003C
:100020000C9489000C9489000C9489000C9489002C
:100030000C9489000C9489000C9489000C9489001C
:100040000C94810A0C9489000C94F10A0C94CB0A4C
:100050000C9489000C9489000C9489000C948900FC
:100060000C9489000C9489005A7375744574686502
:10007000726E65745544503A3A626567696E5061B4
:10008000636B657428636F6E73742063686172209C
:100090002A686F73742C2075696E7431365F742012
:1000A000706F7274293B206973206E6F74207375B2
:1000B00070706F727465642120536F7272792100C1
:1000C000230B11241FBECFEFD8E0DEBFCDBF14E05D
:1000D000A0E0B1E0E4EFF0E202C005900D92A230A2
:1000E000B107D9F728E0A2E0B4E001C01D92AA331D
:1000F000B207E1F710E0C1E6D0E004C02197FE01AD
:100100000E946010C036D107C9F70E94BE0B0C9444
:1001100078100C94000008953FB7F894809163071D
:1001200090916407A0916507B091660726B5A89BDA
:1001300005C02F3F19F00196A11DB11D3FBFBA2F79
:10014000A92F982F8827BC01CD01620F711D811D39
:10015000911D42E0660F771F881F991F4A95D1F7BE
:1001600008958F929F92AF92BF92CF92DF92EF92BB
:10017000FF920E948C004B015C0184E6C82ED12CBA
:10018000E12CF12C0E948C00681979098A099B09DD
:10019000683E734081059105A8F321E0C21AD10899
:1001A000E108F10888EE880E83E0981EA11CB11CBE
:1001B000C114D104E104F10429F7FF90EF90DF901E
:1001C000CF90BF90AF909F908F9008959C01FC01BD
:1001D000E454FD4F80819181A281B381480F591F62
:1001E0006A1F7B1F4083518362837383820F931F37
:1001F0000895089521E0FC012683089521E0FC0183
:1002000027830895FC0171836083228333834483B1
:10021000558382E08783089522E0FC0126830895B8
:1002200023E0FC01268308950895AF92BF92CF92F8
:10023000DF92EF92FF920F931F93CF93DF936C01A6
:100240007B018B01040F151FEB015E01AE18BF0887
:10025000C017D10759F06991D601ED91FC91019039
:10026000F081E02DC6010995892B79F7C501DF9151
:10027000CF911F910F91FF90EF90DF90CF90BF90A3
:10028000AF900895FC01538D448D252F30E0842FCD
:1002900090E0821B930B541710F0CF9608950197AE
:1002A0000895FC01918D828D981761F0A28DAE0F9B
:1002B000BF2FB11D5D968C91928D9F5F9F73928F22
:1002C00090E008958FEF9FEF0895FC01918D828D4E
:1002D000981731F0828DE80FF11D858D90E008951B
:1002E0008FEF9FEF0895FC01918D228D892F90E073
:1002F000805C9F4F821B91098F739927089587E631
:1003000097E00E94730121E0892B09F420E0822FFD
:10031000089580E090E0892B29F00E947F018111EF
:100320000C9400000895FC01A48DA80FB92FB11DF5
:10033000A35ABF4F2C91848D90E001968F7399271B
:10034000848FA689B7892C93A089B1898C918370F9
:1003500080648C93938D848D981306C00288F389F2
:10036000E02D80818F7D80830895EF92FF920F931F
:100370001F93CF93DF93EC0181E0888F9B8D8C8D51
:1003800098131AC0E889F989808185FF15C09FB745
:10039000F894EE89FF896083E889F9898081837008
:1003A000806480839FBF81E090E0DF91CF911F91B7
:1003B0000F91FF90EF900895F62E0B8D10E00F5FD8
:1003C0001F4F0F731127E02E8C8D8E110CC00FB6AE
:1003D00007FCFACFE889F989808185FFF5CFCE0146
:1003E0000E949301F1CFEB8DEC0FFD2FF11DE35A2D
:1003F000FF4FF0829FB7F8940B8FEA89FB898081C9
:100400008062CFCFCF93DF93EC01888D8823B9F042
:10041000AA89BB89E889F9898C9185FD03C080810F
:1004200086FD0DC00FB607FCF7CF8C9185FFF2CF8C
:10043000808185FFEDCFCE010E949301E9CFDF914E
:10044000CF91089566B747B728B739B770E090E005
:1004500080E0962F882777276627842B632B722BC3
:10046000089581E0089587E08CBF95EE9BBF1ABE8A
:100470008CBF86EE8BBF1ABE089590E080E0089591
:1004800097E09CBF87EE8BBF2AB79CBF88EE8BBFDF
:100490008AB7322F282F9CBF85EE8BBF8AB79CBFAF
:1004A00096EE9BBF9AB7892798278927821B930BC3
:1004B0004817590708F4CA01A9014751584FFB01D1
:1004C000DB01A80FB91FEA17FB0739F05CBF4BBF70
:1004D0006AB761934F5F5F4FF6CF280F391F47E030
:1004E0004CBF57EE5BBF3ABF4CBF38EE3BBF2ABF95
:1004F0000895CF93DF931F92CDB7DEB7DC01ED9166
:10050000FC91028CF38DE02D41E050E0BE016F5F65
:100510007F4F09951816190634F4898190E00F90E1
:10052000DF91CF9108958FEF9FEFF9CFFC0197E016
:100530009CBF85EE8BBF8AB79CBF26EE2BBF6AB7E8
:100540009CBF27EE2BBF2AB79CBF98EE9BBF3AB744
:100550001CBE90E19BBF9AB71CBE4FE04BBF4AB791
:100560001CBE5EE05BBF5AB71CBE7DE07BBF7AB7A6
:10057000708B518B428B938B1CBE91E19BBF4AB712
:100580001CBE92E19BBF9AB7542F492F558B448BC9
:10059000982F862F232732272327821B930B08951A
:1005A0008F929F92AF92BF92CF92DF92EF92FF9283
:1005B0000F931F93CF93DF9369014701EC012696B8
:1005C000CE010E949602892BD9F3A401B601CE0177
:1005D0000E94400297FF02C090E080E0BC01990FAA
:1005E000880B990BDF91CF911F910F91FF90EF90A6
:1005F000DF90CF90BF90AF909F908F9008951CBEDA
:1006000083E18BBF8AB71CBE94E19BBF9AB7892751
:1006100098278927FB019C012B5E3F4FDB01A40F2C
:10062000B51FEA17FB0739F061913CBF2BBF6ABFCA
:100630002F5F3F4FF6CF480F591F1CBE83E18BBF82
:100640005ABF1CBE84E18BBF4ABF90E080E0089592
:10065000CF93DF931F92CDB7DEB76983DC01ED91B5
:10066000FC910280F381E02D41E050E0BE016F5F1C
:100670007F4F09950F90DF91CF9108951CBE1BBE4F
:100680008FEF8ABF1CBE1BBE82E08ABF90E080E075
:100690000895FB0132812381948185811CBE1BBE9C
:1006A00061E06ABF1CBE6DE06BBF3ABF1CBE3EE09E
:1006B0003BBF2ABF1CBE2FE02BBF9ABF1CBE90E1E0
:1006C0009BBF8ABF1CBE81E18BBF5ABF1CBE82E1AB
:1006D0008BBF4ABF81E090E00895DC01ED91FC9171
:1006E000008CF18DE02D09941CBE8BE08BBF7ABF8E
:1006F0001CBE8CE08BBF6ABF1CBE1BBE83E08ABFE2
:1007000081E00895FC018489958908952AE131E00A
:10071000FC0131832083FB014089518962897389FF
:10072000FC0142835383648375830895DC01ED915A
:10073000FC91028CF38DE02D099490E080E0089507
:10074000AF92BF92CF92DF92EF92FF920F931F93DF
:10075000CF93DF9300D000D000D0CDB7DEB75801E3
:1007600006967C018AE191E09A8389834B835C83BE
:100770006D837E83A901BE016F5F7F4FC7010E9419
:1007800049035D2D4C2DB501C7010E94FF02C70131
:100790000E943E038C2D26960FB6F894DEBF0FBE46
:1007A000CDBFDF91CF911F910F91FF90EF90DF9020
:1007B000CF90BF90AF900895CF92DF92EF92FF92CB
:1007C0000F931F93CF93DF936901EC017A0110E03F
:1007D00000E00E151F05B1F08881982F9F739430AB
:1007E00069F487FF0BC069817A81D6011296ED9179
:1007F000FC91139714968D919C9109950F5F1F4F53
:100800002596E7CFDF91CF911F910F91FF90EF9049
:10081000DF90CF9008952F923F924F925F926F9208
:100820007F928F929F92AF92BF92CF92DF92EF9280
:10083000FF920F931F93CF93DF9300D000D000D08F
:10084000CDB7DEB78B011C0106969C838B83412CB0
:10085000512C32012115310541055105D9F0D10145
:10086000ED91FD911D018081D8018D93BE83AD83F3
:1008700049015A01B1E08B1A9108A108B1088081A1
:1008800087FF2FC0982F9F73943009F461C000F543
:10089000913060F5412C512C3201C301B2012696F2
:1008A0000FB6F894DEBF0FBECDBFDF91CF911F9181
:1008B0000F91FF90EF90DF90CF90BF90AF909F90FF
:1008C0008F907F906F905F904F903F902F90089502
:1008D000953001F78F7B9181911190E4892BD8019C
:1008E0008C93C12CD12C7601C39423C084E088164C
:1008F0009104A104B10470F2319684E0AD81BE810F
:1009000001900D928A95E1F7D8011596BE83AD83CB
:1009100049015A01B5E08B1A9108A108B10894E089
:10092000C92ED12CE12CF12CBFEFCB1ADB0AEB0A3C
:10093000FB0A4C0C5D1C6E1C7F1CEB81FC812E168F
:100940003F0609F4AACFA50194010D811E8182CF33
:1009500081819281DC010D900020E9F71197AD01B2
:10096000481B590B9A012E5F3F4F3A832983690137
:10097000F12CE12C8C149D04AE04BF0408F48ACF42
:10098000D80112965C934E93119761817281C801D0
:1009900003960E946610ED81FE8129813A81E20F63
:1009A000F31FFE83ED838C189D08AE08BF08BCCFF3
:1009B000AF92BF92CF92DF92EF92FF920F931F936D
:1009C000CF93DF93CDB7DEB7DA950FB6F894DEBFDD
:1009D0000FBECDBF5C01CB0121E229832FEF30E0B8
:1009E00040E050E0BE016E5F7F4F0E940B04611536
:1009F00071058105910559F16B017C012FEFC21A38
:100A0000D20AE20AF20AF501E85BFF4F2081318148
:100A100034974081518162817381D5011296ED91A5
:100A2000FC918E010F5F1F4FC5010995D3950FB63D
:100A3000F894DEBF0FBECDBFDF91CF911F910F9114
:100A4000FF90EF90DF90CF90BF90AF90089580E03F
:100A5000EDCFFB0101900020E9F73197AF01461B74
:100A6000570BDC01ED91FC910280F381E02D09949C
:100A70008F929F92AF92BF92EF92FF920F931F932C
:100A8000CF93DF93CDB7DEB7A1970FB6F894DEBF53
:100A90000FBECDBF7C01FA01CB0119A2223008F4B0
:100AA0002AE08E010F5D1F4F822E912CB12CA12CBC
:100AB000BF01A50194010E942810F901CA016A3002
:100AC0000CF5605DD8016E938D01232B242B252B13
:100AD00079F790E080E0109721F0BD01C7010E94F6
:100AE0002905A1960FB6F894DEBF0FBECDBFDF91EA
:100AF000CF911F910F91FF90EF90BF90AF909F907B
:100B00008F900895695CDECFCF93DF93BC0187E6B9
:100B100097E00E942905EC016CE171E087E697E01F
:100B20000E9429058C0F9D1FDF91CF910895BC0174
:100B300087E697E00C942905CF93DF93C8E6D0E0D1
:100B4000FE016491662339F087E697E00E94B501C3
:100B50002196892BA9F76CE171E087E697E00E9466
:100B60002905989590E080E0DF91CF910895CF938B
:100B7000DF93CDB7DEB72A970FB6F894DEBF0FBE6E
:100B8000CDBFFE01389623E0DF011D922A95E9F7DB
:100B900024E82E8398878F8385E03297DE011196B3
:100BA00001900D928A95E1F729813A814B815C8110
:100BB0006D8170E080E090E02A960FB6F894DEBF79
:100BC0000FBECDBFDF91CF910895CF93DF93CDB707
:100BD000DEB72A970FB6F894DEBF0FBECDBFFE0179
:100BE000369625E0DF011D922A95E9F7442311F09E
:100BF00020E82E832E81207821602E836F837887D2
:100C000089879A8785E0FE013696DE01119601906C
:100C10000D928A95E1F729813A814B815C816D8142
:100C200070E080E090E02A960FB6F894DEBF0FBE29
:100C3000CDBFDF91CF9108952F923F924F925F9257
:100C40006F927F928F929F92AF92BF92CF92DF92DC
:100C5000EF92FF920F931F93CF93DF93CDB7DEB741
:100C6000CA52D1400FB6F894DEBF0FBECDBF2E01E1
:100C700027EF421A2EEF520A28E0D2011D922A9540
:100C8000E9F7FB01208127FF34C0258127FF31C010
:100C900084E090E0D20117969C938E93169788E09B
:100CA000F201A850B14001900D928A95E1F7298197
:100CB0003A814B815C816D817E818F819885C65D93
:100CC000DE4F0FB6F894DEBF0FBECDBFDF91CF91E0
:100CD0001F910F91FF90EF90DF90CF90BF90AF905A
:100CE0009F908F907F906F905F904F903F902F904C
:100CF0000895C95EDE4F59834883C751D1408B01A7
:100D0000CF5DDE4F99838883C152D140FC0162815F
:100D100073818481958141E00E94E5055E01F1E0E7
:100D2000AF0EBF1ED5012C9311963C9311971296CE
:100D30004C93129713965C93139714966C93C95E19
:100D4000DE4FA881B981C751D140ED91FC91119737
:100D500046E050E060E070E014968D919C9109951A
:100D60004C01FC01B182A082138302830B5F1F4FF1
:100D700015830483CF5DDE4FA881B981C152D14074
:100D80006D907C9082E289832EEF30E040E050E06D
:100D9000BE016D5F7F4FC4010E940B0410E061151E
:100DA000710581059105E9F021E02A836B017C0141
:100DB000B2E0CB0ED11CE11CF11CF301E85BFF4F4C
:100DC0002081318134974081518162817381D301C7
:100DD0001296ED91FC918E010F5F1F4FC301099593
:100DE000182FC95EDE4FA881B981C751D140129634
:100DF000ED91FC911397B40114968D919C910995F6
:100E0000112389F188E0F50111928A95E9F7CF5D08
:100E1000DE4FA881B981C152D1408D909C90D40100
:100E2000ED91FC91E12CF12C8701F3949E012F5F51
:100E30003F4FAE014B5E5E4FBE016F5E7E4FC40101
:100E400009956B017C01C114D104E104F10409F49A
:100E50005AC089818F70813079F0823009F458C08E
:100E600090E080E00BC081E090E0F2019783868300
:100E700088E0DE01119617CF81E090E0D401D99689
:100E80002C91222309F43EC2CF5EDE4F4881598166
:100E90006A817B81C151D140CB5EDE4F288139818F
:100EA000C551D140F401EC5BFF4F4080518062801E
:100EB0007380441655066606770641F43496019011
:100EC000F081E02DE217F30709F41CC2F401E05CA5
:100ED000FF4F0190F081E02DC5010995C95FDE4FFC
:100EE0008881C750D14090E08111CBC1C85FDE4FEF
:100EF0008881C850D140813009F0BFC188E0FE012F
:100F0000E75FFE4FB6CFC12CD12C7601D394A8CF8A
:100F100082E090E0B3CFA981B0E084E0B595A795D9
:100F20008A95E1F711962D010B2E000C66087708C3
:100F300025E030E00E945910AB01BC01C95EDE4FD4
:100F4000A881B981C751D140ED91FC9111971496B8
:100F50008D919C9109951C01B1E0CB1AD108E10853
:100F6000F108CD5DDE4F99838883C352D140C75EBF
:100F7000DE4F99838883C951D1405E01E2E0AE0E15
:100F8000B11CC55EDE4F188219821A821B82CB51BA
:100F9000D1409C012F5F3F4FC75DDE4F39832883CF
:100FA000C952D140C114D104E104F104C9F0D50102
:100FB0002D918D01C75EDE4FE881F981C951D14085
:100FC0002083D701C6010197A109B10927FF60C09D
:100FD000322F3F73343009F48FC038F5313090F53B
:100FE000C95EDE4F28813981C751D140B301A201CA
:100FF000C1010E94DC03C95EDE4FA881B981C751DF
:10100000D1401296ED91FC911397B10114968D91F8
:101010009C910995F401EE5BFF4F0190F081E02D6A
:10102000CE018F5F9E4F099559CF3530C9F626FB0B
:10103000222720F9C75EDE4FE881F981C951D140EE
:10104000218326C00497A105B10550F245E0C55E95
:10105000DE4F28813981CB51D140429FD001439F3F
:10106000B00D1124C75DDE4F88819981C952D140EE
:10107000A80FB91F84E0F80101900D928A95E1F75D
:10108000D701C6010597A109B10985010B5F1F4F63
:10109000C55EDE4F288139814A815B81CB51D140C9
:1010A0002F5F3F4F4F4F5F4FC55EDE4F2883398321
:1010B0004A835B83CB51D140C75EDE4F4881598163
:1010C000C951D1404B5F5F4FC75EDE4F59834883A4
:1010D000C951D140C55EDE4F288139814A815B818B
:1010E000CB51D140241535054605570508F06DC094
:1010F0006C017D01580156CF0297A105B10508F496
:101100006FCFD50111960D911C91B3E0CB1AD10888
:10111000E108F108980150E040E0CB5DDE4F288304
:1011200039834A835B83C552D140C216D306E40695
:10113000F50608F455CFA8014F5F5F4F70E060E0FF
:10114000C95EDE4FA881B981C751D140ED91FC91B4
:10115000119714968D919C910995C15EDE4F9983EC
:101160008883CF51D140009709F43ACFB3E0AB0E5A
:10117000B11CA801B5010E946610C15EDE4FE88176
:10118000F981CF51D140E00FF11F1082C15EDE4FD7
:1011900028813981CF51D140C75EDE4FE881F98186
:1011A000C951D14032832183D701C601CB5DDE4FC7
:1011B000288139814A815B81C552D140821B930BC2
:1011C000A40BB50B0A0D1B1D63CF81E040E050E07E
:1011D000BA01CD5DDE4FE881F981C352D1409081E3
:1011E000991F9927991F89234F5F5F4F6F4F7F4F3B
:1011F0003596CD5DDE4FF983E883C352D140441567
:1012000055056605770528F3811125C0F401EE5BCD
:10121000FF4F0190F081E02DCE018F5F9E4F099529
:10122000C95EDE4F28813981C751D140B301A20187
:10123000C1010E94DC03C95EDE4FA881B981C7519C
:10124000D1401296ED91FC911397B10114968D91B6
:101250009C91099543CED401DC96ED91FC91A301BC
:101260009201B101CE018F5F9E4F099537CED40117
:10127000DA96ED91FC91C501D6CE823049F085E039
:1012800090E0C15FDE4F99838883CF50D14036CE46
:10129000CF5FDE4FE881F981C150D14080818F73EB
:1012A000813069F7CF5DDE4FA881B981C152D1404D
:1012B00012964D915D916D917C91159781819281EE
:1012C000A381B481481759076A077B07C1F6359691
:1012D000C75FDE4FF983E883C950D140CD5FDE4F51
:1012E00088819981AA81BB81C350D1400197A1090E
:1012F000B109C55FDE4F88839983AA83BB83CB5036
:10130000D140FCCD8130910509F405CE029709F456
:10131000AECFD401DE96ED91FC91ADCF8F929F922E
:10132000AF92BF92CF92DF92EF92FF920F931F93F3
:10133000CF93DF937C01EB016C0182E0C80ED11CDE
:101340004701E5E08E0E911C10E000E0F6014191AE
:101350006F0150E070E060E02AE0CE010E943805A5
:101360005C01E881F9810190F081E02D6EE2CE010F
:1013700009958A0D9B1D080F191FC814D90431F750
:10138000F701458150E070E060E02AE0CE010E9464
:101390003805800F911FDF91CF911F910F91FF9022
:1013A000EF90DF90CF90BF90AF909F908F90089577
:1013B0008F929F92AF92BF92CF92DF92EF92FF9265
:1013C0000F931F93CF93DF93CDB7DEB762970FB61E
:1013D000F894DEBF0FBECDBF8C016B017A01CA014C
:1013E0000E94B70529833A834B835C836D8340E079
:1013F00060E070E0CB010E94E5052E833F834887C3
:1014000059876A87A801BE016F5F7F4F8CE494E023
:101410000E941C062B873C874D875E876F87788BE1
:10142000898B9A8B89899A89892BB9F40B851C85BC
:101430000115110591F08D849E84AF84B8888FE1E9
:1014400091E00E94840582E088169104A104B10411
:1014500031F08FE491E00E94840580E03CC0F80107
:1014600080818F73843019F084E791E0F4CFB70165
:10147000818192810E946F10892B19F080EB91E09D
:10148000EACFF80185818F738130C1F5868197811C
:10149000A085B185F60180839183A283B38389EC13
:1014A00091E00E949705C7010E94970583EA92E0A8
:1014B0000E949705F60140815181628173812AE083
:1014C00087E697E00E9438056CE171E087E697E0D7
:1014D0000E94290581E062960FB6F894DEBF0FBE28
:1014E000CDBFDF91CF911F910F91FF90EF90DF90D3
:1014F000CF90BF90AF909F908F90089582EF91E032
:10150000AACF1F920F920FB60F9211242F933F93E1
:101510008F939F93AF93BF9380915F0790916007E4
:10152000A0916107B091620730915E0723E0230F1D
:101530002D3758F50196A11DB11D20935E078093AC
:101540005F0790936007A0936107B0936207809153
:10155000630790916407A0916507B09166070196B3
:10156000A11DB11D8093630790936407A093650745
:10157000B0936607BF91AF919F918F913F912F914B
:101580000F900FBE0F901F90189526E8230F02961C
:10159000A11DB11DD2CF1F920F920FB60F92112431
:1015A0002F933F934F935F936F937F938F939F936B
:1015B000AF93BF93EF93FF9387E697E00E94930169
:1015C000FF91EF91BF91AF919F918F917F916F911B
:1015D0005F914F913F912F910F900FBE0F901F90F1
:1015E00018951F920F920FB60F9211242F938F937D
:1015F0009F93EF93FF93E0917707F09178078081B5
:10160000E0917D07F0917E0782FD1BC09081809163
:1016100080078F5F8F7320918107821741F0E091DF
:101620008007F0E0E959F84F958F80938007FF918C
:10163000EF919F918F912F910F900FBE0F901F9060
:1016400018958081F4CFCF92DF92EF92FF92CF93E3
:10165000DF9300D000D000D0CDB7DEB7E7E6F7E0EB
:101660001382128288EE93E0A0E0B0E08483958339
:10167000A683B78388E091E09183808385EC90E036
:101680009587848784EC90E09787868780EC90E04C
:10169000918B808B81EC90E0938B828B82EC90E03D
:1016A000958B848B86EC90E0978B868B118E128EB7
:1016B000138E148EE4E0F8E08AE191E09183808358
:1016C0001282138214821582E2E1F8E09183808312
:1016D0001282138214821582EAE0F8E091838083FB
:1016E0001282138214821582E8E1F8E091838083EC
:1016F0001282138214821582EEE1F8E091838083D6
:101700001282138214821582E4E2F8E091838083CE
:101710001282138214821582E4E3F8E091838083BD
:10172000128213821482158240EC4B8338EA3C8388
:1017300028E32D8356E65E83CB80DC80ED80FE803F
:10174000C0923008D0923108E0923208F09233080B
:10175000EAE2F8E09183808342833383248387E63F
:10176000858326960FB6F894DEBF0FBECDBFDF91FE
:10177000CF91FF90EF90DF90CF900895CF93DF93BC
:10178000CDB7DEB7C65DD1090FB6F894DEBF0FBE88
:10179000CDBF789484B5826084BD84B5816084BDFA
:1017A00085B5826085BD85B5816085BD80916E00FF
:1017B000816080936E001092810080918100826030
:1017C000809381008091810081608093810080916D
:1017D00080008160809380008091B100846080935C
:1017E000B1008091B00081608093B00080917A0058
:1017F000846080937A0080917A00826080937A007E
:1018000080917A00816080937A0080917A0080686C
:1018100080937A001092C100E0917707F0917807E9
:1018200082E08083E0917307F09174071082E09169
:101830007507F091760780E1808310927F07E09131
:101840007B07F0917C0786E08083E0917907F09137
:101850007A07808180618083E0917907F0917A072F
:10186000808188608083E0917907F0917A07808198
:1018700080688083E0917907F0917A0780818F7D7D
:10188000808387E392E00E948405C0903008D09066
:101890003108E0903208F090330885E790E08C0F33
:1018A0009D1F069624E3DC011D922A95E9F720EDA1
:1018B00032E0E7963FAF2EAFE79720EA33E0E996B4
:1018C0003FAF2EAFE99724E131E0EB963FAF2EAF6B
:1018D000EB9721E0C355DF4F2883CD5AD04048EE27
:1018E00053E060E070E0C158DF4F488359836A835A
:1018F0007B83CF57D040CD57DF4F188219821A8291
:101900001B82C358D040C957DF4F19821882C7586D
:10191000D040C157DF4F19821882CF58D040CF56E0
:10192000DF4F19821882C159D04024E0CD56DF4FD5
:101930002883C359D040CC56DF4F19821882C4592E
:10194000D0406AE67DE00E9474038AE3FE01EB5812
:10195000FF4FDE01DB9601900D928A95E1F7E2E000
:10196000F4E08AE4DF011D928A95E9F78AE3FE013B
:10197000FB96DE01119601900D928A95E1F7E496AF
:101980008FADE497813009F449C180E492E00E9470
:10199000840582E094E090934D0480934C0441E0F0
:1019A00050E060E070E040934E0450934F04609329
:1019B000500470935104909389048093880482E0CA
:1019C00090E0A0E0B0E080938A0490938B04A09311
:1019D0008C04B0938D040E94B100EEE9F4E080EC39
:1019E00092E0DF019C011D9221503040E1F78E0111
:1019F00001551F4F7E0131EDE30EF11C180185E00A
:101A0000280E311C32E0432E512C612C712C86EEB5
:101A100090E0CF53DF4F99838883C15CD04089EF3A
:101A200090E0CD53DF4F99838883C35CD040AEE90B
:101A3000B4E0CB53DF4FB983A883C55CD040D090CE
:101A40008704DD2009F421C1B1E0DB1609F4E2C10D
:101A5000EEE9F4E02CEB32E0119221503040E1F756
:101A600010925A0710925B0710925C0710925D0764
:101A70008091960481110DC00E942202609392040D
:101A800070939304809394049093950481E08093E1
:101A9000960489EF92E00E94B705D8012C93119625
:101AA0003C93119712964C93129713965C9313974D
:101AB00014966C9385E0F701282F11922A95E9F787
:101AC000D7018C93F701DE01A953BF4F982F0190E6
:101AD0000D929A95E1F7FE01E953FF4FDE01A45301
:101AE000BF4F982F01900D929A95E1F7FE01E453B4
:101AF000FF4FD10101900D928A95E1F7AE014F534E
:101B00005F4FB80188E894E00E941C06C754DF4F7D
:101B10002883C95BD040C654DF4F3883CA5BD040AE
:101B2000C554DF4F4883CB5BD040C454DF4F58834C
:101B3000CC5BD040C354DF4F6883CD5BD040C254F0
:101B4000DF4F7883CE5BD040C154DF4F8883CF5BBB
:101B5000D040C054DF4F9883C05CD040C154DF4FA9
:101B600088819981CF5BD040892B09F0F7C1C75498
:101B7000DF4FC880D980C95BD040C114D10409F4BB
:101B8000EDC1C554DF4F88809980AA80BB80CB5BB4
:101B9000D0408BE093E00E9484058FE491E0B2E0B6
:101BA0008B169104A104B10409F0D6C1F60180811D
:101BB0008F73843009F0CEC169EF72E08181928128
:101BC0000E946F10892B09F033C2D60115968C91B3
:101BD00015978F73853009F02EC21696DC908BE333
:101BE00093E00E9497054D2D50E070E060E02AE000
:101BF00087E697E00E9438056CE171E087E697E0A0
:101C00000E942905D1101AC280918E0490918F04F0
:101C1000019690938F0480938E04A0C189AF8AE3CC
:101C2000FE013196A2E0B4E001900D928A95E1F7B1
:101C3000C0924604D0924704E0924804F0924904CE
:101C40008CE09AEA90934B0480934A048EEF90E0E4
:101C500090933D0480933C0482E091E090933F0494
:101C600080933E048AEF90E0909341048093400477
:101C700080E191E090934304809342048CE091E0F2
:101C8000909345048093440484CE8090000190900A
:101C90000101A0900201B0900301D501C401019699
:101CA000A11DB11D8093000190930101A093020139
:101CB000B09303018AE692E00E94B705F801208301
:101CC000318342835383648341E0C501B4010E94A0
:101CD000E505D80115962C93159716963C93169703
:101CE00017964C93179718965C93189719966C93C0
:101CF00019978C9187FF8AC027FF88C060914E0496
:101D000070914F04809150049091510441E00E94E1
:101D1000E505F70120833183428353836483CF53E6
:101D2000DF4FE881F981C15CD04046E050E060E0DF
:101D300070E0CB53DF4F88819981C55CD040099515
:101D40006C01DC011196FC92EE9213961C930E939B
:101D5000129715963C922E921497BC0180914C04D8
:101D600090914D040E94D804CA52DF4F8883C65D0B
:101D7000D040CD53DF4FE881F981C35CD040B6013C
:101D8000CB53DF4F88819981C55CD040099591E0A4
:101D900080E0CA52DF4FB881C65DD040B11190E0FB
:101DA000C92ED82E89E792E00E949705A60170E01F
:101DB00060E02AE087E697E00E94380581EB92E038
:101DC0000E9497052AE0B501A40187E697E00E94EA
:101DD000380583ED92E00E94840580910001909186
:101DE0000101A0910201B0910301C397A105B105C2
:101DF00008F42ECE81E08093870440920001509237
:101E00000101609202017092030122CE22E0C22EF3
:101E1000D12CC8CF46ED52E0B801CE018F539F4F71
:101E20000E94D8098823F9F0F80180819181A2816C
:101E3000B3810297A109B1098A5A9B4FDC01DC9258
:101E40008091520490915304A0915404B091550490
:101E50000196A11DB11D8093520490935304A09349
:101E60005404B09355044FED52E0B801CE018F53A6
:101E70009F4F0E94D8098823F9F0F8018081918151
:101E8000A281B3810297A109B1098A5A9B4FDC0153
:101E90001C928091520490915304A0915404B091EB
:101EA00055040196A11DB11D8093520490935304D3
:101EB000A0935404B093550480915204909153041C
:101EC000A0915404B0915504C197A105B10509F042
:101ED000BFCD86E5C82E84E0D82E92E0892E912CC5
:101EE000A12CB12C8CEE92E00E9497052AE0B5015E
:101EF000A40187E697E00E94380584EF92E00E94F3
:101F00009705F60181916F01882309F181E392E041
:101F10000E948405FFEF8F1A9F0AAF0ABF0A23E3CE
:101F200082169104A104B104E9F610928704E6E553
:101F3000F4E081E3DF011D928A95E9F710925204E3
:101F400010925304109254041092550481CD8DE2E6
:101F500092E0DECF84E791E00E9484050E94220295
:101F6000AB01BC018091920490919304A0919404E0
:101F7000B091950488519C4FAF4FBF4F8417950780
:101F8000A607B707B0F5409392045093930460936B
:101F900094047093950488EA93E00E94840583EC8E
:101FA00093E00E94970540918E0450918F0470E059
:101FB00060E02AE087E697E00E9438056CE171E076
:101FC00087E697E00E94290582EE93E00E9497053C
:101FD000409190045091910470E060E02AE087E61F
:101FE00097E00E9438056CE171E087E697E00E9477
:101FF0002905EEE9F4E02CEB32E01192215030405B
:10200000E1F710925A0710925B0710925C0710924A
:102010005D070E94B10080E090E0892B09F4F7CCC5
:102020000E947F01882309F4F2CC0E940000EFCCCB
:1020300080EB91E091CF8DE693E08ECF809190047C
:10204000909191040196909391048093900486CF8F
:10205000A1E21A2EAA1BBB1BFD010DC0AA1FBB1FAC
:10206000EE1FFF1FA217B307E407F50720F0A21B1E
:10207000B30BE40BF50B661F771F881F991F1A948B
:1020800069F760957095809590959B01AC01BD01B5
:10209000CF010895A29FB001B39FC001A39F700D0F
:1020A000811D1124911DB29F700D811D1124911D60
:1020B00008950E944A10B7FF0895821B930B08955C
:1020C000EE0FFF1F0590F491E02D0994FB01DC0158
:1020D00002C001900D9241505040D8F70895FB0185
:1020E000DC018D91019080190110D9F3990B0895AD
:0420F000F894FFCF92
:1020F4000200000000000000B501150142010202C7
:10210400730151016501000000008E090D0A0047AA
:102114006F74207461736B20666F72206170706CD1
:1021240069636174696F6E20312066726F6D20740B
:102134006865207475706C65207370616365004513
:1021440072726F722C20676F74207475706C6520C6
:102154007769746820696E76616C6964206C656E59
:10216400677468004572726F722C207468652074FD
:1021740075706C6520646F6573206E6F7420636F77
:102184006E7461696E20737472696E672061742065
:1021940074686520666972737420706C616365008D
:1021A4004572726F722C20696E76616C696420745A
:1021B40061736B206E616D6500476F742072657387
:1021C400706F6E736520666F72206170706C6963E6
:1021D4006174696F6E203120616E6420747970655A
:1021E40020004572726F722C2074686520747570BB
:1021F4006C6520646F6573206E6F7420636F6E74FA
:1022040061696E2075696E7420617420746865203C
:102214007365636F6E6420706C616365006E6F74C8
:10222400207072696D65005374617274696E670021
:102234004170706C69636174696F6E20636F6E7452
:1022440065787420696E697469616C697A6174690E
:102254006F6E206661696C656400636865636B5FBB
:1022640069665F7072696D65004170706C69636165
:1022740074696F6E20312073656E64207475706CA0
:102284006520746F20746865207475706C65737054
:102294006163652077697468207374617475732051
:1022A400002077697468206D657373616765202801
:1022B40022636865636B5F69665F7072696D65222E
:1022C4002C200022290069735F7072696D650069B2
:1022D400735F6E6F745F7072696D65004E756D62C9
:1022E40065722000206973200064697265637469F3
:1022F4006F6E5F6368616E67656400476F74207416
:1023040061736B20666F72206170706C69636174B5
:10231400696F6E20322066726F6D20746865207458
:1023240075706C6520737061636500476F74206419
:102334006972656374696F6E206368616E67652096
:102344006174206170706C69636174696F6E2032AE
:1023540020776974682076616C7565200045727217
:102364006F722C20746865207475706C6520646FBE
:102374006573206E6F7420636F6E7461696E206282
:102384006F6F6C20617420746865207365636F6E71
:102394006420706C6163650050696E2064697265C5
:1023A4006374696F6E206368616E6765207374611E
:1023B4007473004368616E67652064697265637451
:1023C400696F6E2066726F6D2030202D3E20313A89
:1023D40020004368616E676520646972656374698F
:1023E4006F6E2066726F6D2031202D3E20303A20B2
:0223F4000000E7
:00000001FF
