:100000000C9461000C9489000C9489000C94890074
:100010000C9489000C9489000C9489000C9489003C
:100020000C9489000C9489000C9489000C9489002C
:100030000C9489000C9489000C9489000C9489001C
:100040000C94E1090C9489000C94510A0C942B0A2D
:100050000C9489000C9489000C9489000C948900FC
:100060000C9489000C9489005A7375744574686502
:10007000726E65745544503A3A626567696E5061B4
:10008000636B657428636F6E73742063686172209C
:100090002A686F73742C2075696E7431365F742012
:1000A000706F7274293B206973206E6F74207375B2
:1000B00070706F727465642120536F7272792100C1
:1000C000830A11241FBECFEFD8E0DEBFCDBF13E0FF
:1000D000A0E0B1E0E6E9FEE102C005900D92AA348D
:1000E000B107D9F727E0AAE4B3E001C01D92AE330F
:1000F000B207E1F710E0C1E6D0E004C02197FE01AD
:100100000E94310FC036D107C9F70E941E0B0C9414
:10011000490F0C94000008953FB7F894809167064A
:1001200090916806A0916906B0916A0626B5A89BD1
:1001300005C02F3F19F00196A11DB11D3FBFBA2F79
:10014000A92F982F8827BC01CD01620F711D811D39
:10015000911D42E0660F771F881F991F4A95D1F7BE
:1001600008958F929F92AF92BF92CF92DF92EF92BB
:10017000FF920E948C004B015C0184E6C82ED12CBA
:10018000E12CF12C0E948C00681979098A099B09DD
:10019000683E734081059105A8F321E0C21AD10899
:1001A000E108F10888EE880E83E0981EA11CB11CBE
:1001B000C114D104E104F10429F7FF90EF90DF901E
:1001C000CF90BF90AF909F908F9008959C01FC01BD
:1001D000E454FD4F80819181A281B381480F591F62
:1001E0006A1F7B1F4083518362837383820F931F37
:1001F0000895089521E0FC012683089521E0FC0183
:1002000027830895FC0171836083228333834483B1
:10021000558382E08783089522E0FC0126830895B8
:1002200023E0FC01268308950895AF92BF92CF92F8
:10023000DF92EF92FF920F931F93CF93DF936C01A6
:100240007B018B01040F151FEB015E01AE18BF0887
:10025000C017D10759F06991D601ED91FC91019039
:10026000F081E02DC6010995892B79F7C501DF9151
:10027000CF911F910F91FF90EF90DF90CF90BF90A3
:10028000AF900895FC01538D448D252F30E0842FCD
:1002900090E0821B930B541710F0CF9608950197AE
:1002A0000895FC01918D828D981761F0A28DAE0F9B
:1002B000BF2FB11D5D968C91928D9F5F9F73928F22
:1002C00090E008958FEF9FEF0895FC01918D828D4E
:1002D000981731F0828DE80FF11D858D90E008951B
:1002E0008FEF9FEF0895FC01918D228D892F90E073
:1002F000805C9F4F821B91098F73992708958BE62D
:1003000096E00E94730121E0892B09F420E0822FFE
:10031000089580E090E0892B29F00E947F018111EF
:100320000C9400000895FC01A48DA80FB92FB11DF5
:10033000A35ABF4F2C91848D90E001968F7399271B
:10034000848FA689B7892C93A089B1898C918370F9
:1003500080648C93938D848D981306C00288F389F2
:10036000E02D80818F7D80830895EF92FF920F931F
:100370001F93CF93DF93EC0181E0888F9B8D8C8D51
:1003800098131AC0E889F989808185FF15C09FB745
:10039000F894EE89FF896083E889F9898081837008
:1003A000806480839FBF81E090E0DF91CF911F91B7
:1003B0000F91FF90EF900895F62E0B8D10E00F5FD8
:1003C0001F4F0F731127E02E8C8D8E110CC00FB6AE
:1003D00007FCFACFE889F989808185FFF5CFCE0146
:1003E0000E949301F1CFEB8DEC0FFD2FF11DE35A2D
:1003F000FF4FF0829FB7F8940B8FEA89FB898081C9
:100400008062CFCFCF93DF93EC01888D8823B9F042
:10041000AA89BB89E889F9898C9185FD03C080810F
:1004200086FD0DC00FB607FCF7CF8C9185FFF2CF8C
:10043000808185FFEDCFCE010E949301E9CFDF914E
:10044000CF91089581E0089587E08CBF95EE9BBF22
:100450001ABE8CBF86EE8BBF1ABE089590E080E076
:10046000089597E09CBF87EE8BBF2AB79CBF88EEAC
:100470008BBF8AB7322F282F9CBF85EE8BBF8AB7E0
:100480009CBF96EE9BBF9AB7892798278927821B26
:10049000930B4817590708F4CA01A9014751584F4F
:1004A000FB01DB01A80FB91FEA17FB0739F05CBF9E
:1004B0004BBF6AB761934F5F5F4FF6CF280F391F6D
:1004C00047E04CBF57EE5BBF3ABF4CBF38EE3BBF77
:1004D0002ABF0895CF93DF931F92CDB7DEB7DC011B
:1004E000ED91FC91028CF38DE02D41E050E0BE01D6
:1004F0006F5F7F4F09951816190634F4898190E0D3
:100500000F90DF91CF9108958FEF9FEFF9CFFC010E
:1005100097E09CBF85EE8BBF8AB79CBF26EE2BBFB2
:100520006AB79CBF27EE2BBF2AB79CBF98EE9BBF34
:100530003AB71CBE90E19BBF9AB71CBE4FE04BBFC1
:100540004AB71CBE5EE05BBF5AB71CBE7DE07BBFF6
:100550007AB7708B518B428B938B1CBE91E19BBF02
:100560004AB71CBE92E19BBF9AB7542F492F558BB7
:10057000448B982F862F232732272327821B930B08
:1005800008958F929F92AF92BF92CF92DF92EF9297
:10059000FF920F931F93CF93DF9369014701EC0103
:1005A0002696CE010E948702892BD9F3A401B601B9
:1005B000CE010E94310297FF02C090E080E0BC01B2
:1005C000990F880B990BDF91CF911F910F91FF909D
:1005D000EF90DF90CF90BF90AF909F908F90089555
:1005E0001CBE83E18BBF8AB71CBE94E19BBF9AB748
:1005F000892798278927FB019C012B5E3F4FDB0150
:10060000A40FB51FEA17FB0739F061913CBF2BBF60
:100610006ABF2F5F3F4FF6CF480F591F1CBE83E1C3
:100620008BBF5ABF1CBE84E18BBF4ABF90E080E005
:100630000895CF93DF931F92CDB7DEB76983DC01B6
:10064000ED91FC910280F381E02D41E050E0BE018C
:100650006F5F7F4F09950F90DF91CF9108951CBE7A
:100660001BBE8FEF8ABF1CBE1BBE82E08ABF90E01C
:1006700080E00895FB0132812381948185811CBE35
:100680001BBE61E06ABF1CBE6DE06BBF3ABF1CBE03
:100690003EE03BBF2ABF1CBE2FE02BBF9ABF1CBE53
:1006A00090E19BBF8ABF1CBE81E18BBF5ABF1CBEBD
:1006B00082E18BBF4ABF81E090E00895DC01ED91BB
:1006C000FC91008CF18DE02D09941CBE8BE08BBF5A
:1006D0007ABF1CBE8CE08BBF6ABF1CBE1BBE83E012
:1006E0008ABF81E00895FC0184899589089526E1F7
:1006F00031E0FC0131832083FB014089518962890B
:100700007389FC0142835383648375830895DC01FC
:10071000ED91FC91028CF38DE02D099490E080E046
:100720000895AF92BF92CF92DF92EF92FF920F9314
:100730001F93CF93DF9300D000D000D0CDB7DEB7AA
:10074000580106967C0186E191E09A8389834B8368
:100750005C836D837E83A901BE016F5F7F4FC701FC
:100760000E943A035D2D4C2DB501C7010E94F00295
:10077000C7010E942F038C2D26960FB6F894DEBF7A
:100780000FBECDBFDF91CF911F910F91FF90EF90E2
:10079000DF90CF90BF90AF900895CF92DF92EF920D
:1007A000FF920F931F93CF93DF936901EC017A01BE
:1007B00010E000E00E151F05B1F08881982F9F739F
:1007C000943069F487FF0BC069817A81D601129653
:1007D000ED91FC91139714968D919C9109950F5F63
:1007E0001F4F2596E7CFDF91CF911F910F91FF907B
:1007F000EF90DF90CF9008950F931F93FC0100E0DE
:1008000010E0980181E0041715072607370759F013
:100810009081991F9927991F89230F5F1F4F2F4F91
:100820003F4F3596F0CF1F910F9108952F923F9231
:100830004F925F926F927F928F929F92AF92BF92F0
:10084000CF92DF92EF92FF920F931F93CF93DF939C
:10085000CDB7DEB7C851D1400FB6F894DEBF0FBE9A
:10086000CDBF1C016B01C95FDE4F59834883C75060
:10087000D140DC01ED91FC91E12CF12C8701F39446
:100880009E012F5F3F4FAE014B5F5E4FBE016F5F1A
:100890007E4F09954B015C0181149104A104B104C0
:1008A00009F454C089818F70813031F0823009F4AD
:1008B00052C090E080E002C081E090E0F10121AD03
:1008C000222309F4D3C1CF5FDE4F488159816A8169
:1008D0007B81C150D140CB5FDE4F28813981C5502B
:1008E000D140EC5BFF4F40805180628073804416A2
:1008F00055066606770641F434960190F081E02DA6
:10090000E217F30709F4B2C1F101E05CFF4F019077
:10091000F081E02DC6010995C85EDE4F0FB6F89450
:10092000DEBF0FBECDBFDF91CF911F910F91FF9022
:10093000EF90DF90CF90BF90AF909F908F907F907F
:100940006F905F904F903F902F900895812C912C45
:1009500054019394AECF82E090E0B0CFA981B0E093
:1009600084E0B595A7958A95E1F711962D010B2E98
:10097000000C6608770825E030E00E942A0FAB01E2
:10098000BC01C95FDE4FA881B981C750D140ED914C
:10099000FC91119714968D919C9109957C01B5015C
:1009A000A4014150510961097109C75FDE4F998364
:1009B0008883C950D1408E010E5F1F4FC55FDE4F47
:1009C000188219821A821B82CB50D140FC013196C9
:1009D000C95EDE4FF983E883C751D1404115510507
:1009E00061057105C9F0D8012D914D01C75FDE4F3A
:1009F000E881F981C950D1402083DB01CA01019708
:100A0000A109B10927FF5FC0322F3F73343009F4C9
:100A10008EC028F5313080F5C95FDE4F28813981DD
:100A2000C750D140B301A201C7010E94CD03C95FE5
:100A3000DE4FA881B981C750D1401296ED91FC914B
:100A40001397B70114968D919C910995F101EE5B76
:100A5000FF4F0190F081E02DC60109955DCF353043
:100A6000D9F626FB222720F9C75FDE4FE881F981FE
:100A7000C950D140218327C00497A105B10560F278
:100A800085E0C55FDE4F28813981CB50D140829F00
:100A9000D001839FB00D1124C95EDE4FE881F9813A
:100AA000C751D140AE0FBF1F84E0F40101900D92F9
:100AB0008A95E1F7DB01CA010597A109B10948014F
:100AC000F5E08F0E911CC55FDE4F288139814A8188
:100AD0005B81CB50D1402F5F3F4F4F4F5F4FC55F82
:100AE000DE4F288339834A835B83CB50D140C75F75
:100AF000DE4F48815981C950D1404B5F5F4FC75F7E
:100B0000DE4F59834883C950D140C55FDE4F2881ED
:100B100039814A815B81CB50D1402415350546058A
:100B2000570508F06AC0AC01BD01840157CF029798
:100B3000A105B10508F470CFD80111968D909C9055
:100B4000DB01CA010397A109B109C15FDE4F8883A8
:100B50009983AA83BB83CF50D140940150E040E0F9
:100B6000CD5EDE4F288339834A835B83C351D140F6
:100B700082179307A407B50708F44ECFA4014F5F6F
:100B80005F4F70E060E0C95FDE4FA881B981C75058
:100B9000D140ED91FC91119714968D919C910995FE
:100BA0005C01009709F438CF0D5F1F4FA401B80115
:100BB0000E94370FF501E80DF91D1082C75FDE4F67
:100BC000E881F981C950D140B282A182C15FDE4F74
:100BD00088819981AA81BB81CF50D140CD5EDE4F03
:100BE000288139814A815B81C351D140821B930B9B
:100BF000A40BB50B800E911E66CFB301A201C701F5
:100C00000E94FC03811123C0F101EE5BFF4F0190B4
:100C1000F081E02DC6010995C95FDE4F2881398139
:100C2000C750D140B301A201C7010E94CD03C95FE3
:100C3000DE4FA881B981C750D1401296ED91FC9149
:100C40001397B70114968D919C91099565CED101AA
:100C5000DC96ED91FC91A3019201B701C6010995C3
:100C60005BCED101DA96ED91FC91F6CE8130910503
:100C700009F474CE0297A9F3D101DE96ED91FC91AF
:100C8000EBCE2F923F924F925F926F927F928F9214
:100C90009F92AF92BF92CF92DF92EF92FF920F930B
:100CA0001F93CF93DF9300D000D000D0CDB7DEB735
:100CB0008B011C0106969C838B83412C512C3201A5
:100CC0002115310541055105D9F0D101ED91FD9175
:100CD0001D018081D8018D93BE83AD8349015A01E6
:100CE000B1E08B1A9108A108B108808187FF2FC05D
:100CF000982F9F73943009F461C000F5913060F52E
:100D0000412C512C3201C301B20126960FB6F89442
:100D1000DEBF0FBECDBFDF91CF911F910F91FF902E
:100D2000EF90DF90CF90BF90AF909F908F907F908B
:100D30006F905F904F903F902F900895953001F7FE
:100D40008F7B9181911190E4892BD8018C93C12CD8
:100D5000D12C7601C39423C084E088169104A104A9
:100D6000B10470F2319684E0AD81BE8101900D92A4
:100D70008A95E1F7D8011596BE83AD8349015A01E2
:100D8000B5E08B1A9108A108B10894E0C92ED12CC6
:100D9000E12CF12CBFEFCB1ADB0AEB0AFB0A4C0C5F
:100DA0005D1C6E1C7F1CEB81FC812E163F0609F436
:100DB000AACFA50194010D811E8182CF81819281EC
:100DC000DC010D900020E9F71197AD01481B590B8C
:100DD0009A012E5F3F4F3A8329836901F12CE12C60
:100DE0008C149D04AE04BF0408F48ACFD801129677
:100DF0005C934E93119761817281C80103960E94A2
:100E0000370FED81FE8129813A81E20FF31FFE83C6
:100E1000ED838C189D08AE08BF08BCCFAF92BF927F
:100E2000CF92DF92EF92FF920F931F93CF93DF93B6
:100E3000CDB7DEB7DA950FB6F894DEBF0FBECDBFE3
:100E40005C01CB0122E229832EEF30E040E050E04C
:100E5000BE016D5F7F4F0E944106611571058105DE
:100E6000910569F121E02A836B017C0122E0C20E29
:100E7000D11CE11CF11CF501E85BFF4F20813181A1
:100E800034974081518162817381D5011296ED9131
:100E9000FC918E010F5F1F4FC5010995D3950FB6C9
:100EA000F894DEBF0FBECDBFDF91CF911F910F91A0
:100EB000FF90EF90DF90CF90BF90AF90089580E0CB
:100EC000EDCFAF92BF92CF92DF92EF92FF920F934E
:100ED0001F93CF93DF93CDB7DEB7DA950FB6F894B3
:100EE000DEBF0FBECDBF5C01CB0121E229832FEF16
:100EF00030E040E050E0BE016E5F7F4F0E9441064F
:100F0000611571058105910559F16B017C012FEF88
:100F1000C21AD20AE20AF20AF501E85BFF4F208109
:100F2000318134974081518162817381D50112965C
:100F3000ED91FC918E010F5F1F4FC5010995D3956F
:100F40000FB6F894DEBF0FBECDBFDF91CF911F91DA
:100F50000F91FF90EF90DF90CF90BF90AF900895EA
:100F600080E0EDCFFB0101900020E9F73197AF0160
:100F7000461B570BDC01ED91FC910280F381E02DC3
:100F800009948F929F92AF92BF92EF92FF920F932C
:100F90001F93CF93DF93CDB7DEB7A1970FB6F89429
:100FA000DEBF0FBECDBF7C01FA01CB0119A22230FA
:100FB00008F42AE08E010F5D1F4F822E912CB12C78
:100FC000A12CBF01A50194010E94E90EF901CA01FB
:100FD0006A300CF5605DD8016E938D01232B242BB4
:100FE000252B79F790E080E0109721F0BD01C70133
:100FF0000E94B207A1960FB6F894DEBF0FBECDBF18
:10100000DF91CF911F910F91FF90EF90BF90AF9024
:101010009F908F900895695CDECFCF93DF93D0E0EF
:10102000C0E0009731F0BC018BE696E00E94B20769
:10103000EC0168E171E08BE696E00E94B2078C0F4C
:101040009D1FDF91CF910895CF93DF93C8E6D0E045
:10105000FE016491662339F08BE696E00E94B501AB
:101060002196892BA9F768E171E08BE696E00E9452
:10107000B207989590E080E0DF91CF910895CF93EB
:10108000DF93CDB7DEB72A970FB6F894DEBF0FBE59
:10109000CDBFFE01389623E0DF011D922A95E9F7C6
:1010A00024E82E8398878F8385E03297DE0111969E
:1010B00001900D928A95E1F729813A814B815C81FB
:1010C0006D8170E080E090E02A960FB6F894DEBF64
:1010D0000FBECDBFDF91CF910895CF93DF93CDB7F2
:1010E000DEB72A970FB6F894DEBF0FBECDBFFE0164
:1010F000369625E0DF011D922A95E9F7442311F089
:1011000020E82E832E81207821602E836F837887BC
:1011100089879A8785E0FE013696DE011196019057
:101120000D928A95E1F729813A814B815C816D812D
:1011300070E080E090E02A960FB6F894DEBF0FBE14
:10114000CDBFDF91CF910895AF92BF92CF92DF9242
:10115000EF92FF920F931F93CF93DF9300D000D0B5
:101160001F92CDB7DEB75C016B017A01DC011296EC
:101170006D917D918D919C91159741E00E946D0834
:1011800029833A834B835C836D83D701ED91FC9176
:10119000119746E050E060E070E014968D919C91CC
:1011A00009958C01CE010196F80191838083D38249
:1011B000C282F5E0CF0ED11CD8011596DC92CE92FA
:1011C0001497B801F501808191810E946107D82EA2
:1011D000D7011296ED91FC911397B80114968D9159
:1011E0009C91099581E090E0DD2011F090E080E095
:1011F0000F900F900F900F900F90DF91CF911F9154
:101200000F91FF90EF90DF90CF90BF90AF90089537
:101210008F929F92AF92BF92CF92DF92EF92FF9206
:10122000CF93DF93CDB7DEB72A970FB6F894DEBF22
:101230000FBECDBF6C014A015B017901C9010E945B
:101240003F0829833A834B835C836D8341E0C5016A
:10125000B4010E946D082E833F83488759876A87AF
:1012600042E050E060E070E0CE0101960E94FC0395
:10127000882309F458C0A601BE016F5F7F4F84E93F
:1012800093E00E94A4086C016BE171E08BE696E0AC
:101290000E94B2072AE0B501A4018BE696E00E9405
:1012A000C10764E571E08BE696E00E94B207B701E2
:1012B0008BE696E00E94B20769E571E08BE696E066
:1012C0000E94B2070D2C000CEE08FF082AE0B701BF
:1012D000A601F7FE0DC06DE28BE696E00E94B50117
:1012E00044275527BA014C195D096E097F092AE088
:1012F0008BE696E00E94C10768E171E08BE696E01C
:101300000E94B2072A960FB6F894DEBF0FBECDBF7B
:10131000DF91CF91FF90EF90DF90CF90BF90AF9093
:101320009F908F90089582E0C82ED12CADCF8F92E0
:101330009F92AF92BF92CF92DF92EF92FF920F9364
:101340001F93CF93DF937C01EB016C0182E0C80E09
:10135000D11C4701E5E08E0E911C10E000E0F60183
:1013600041916F0150E070E060E02AE0CE010E9400
:10137000C1075C01E881F9810190F081E02D6EE206
:10138000CE0109958A0D9B1D080F191FC814D90499
:1013900031F7F701458150E070E060E02AE0CE01CE
:1013A0000E94C107800F911FDF91CF911F910F9174
:1013B000FF90EF90DF90CF90BF90AF909F908F9075
:1013C00008951F920F920FB60F9211242F933F93FF
:1013D0008F939F93AF93BF93809163069091640620
:1013E000A0916506B09166063091620623E0230F56
:1013F0002D3758F50196A11DB11D209362068093EB
:10140000630690936406A0936506B0936606809188
:10141000670690916806A0916906B0916A060196E8
:10142000A11DB11D8093670690936806A09369067D
:10143000B0936A06BF91AF919F918F913F912F9189
:101440000F900FBE0F901F90189526E8230F02965D
:10145000A11DB11DD2CF1F920F920FB60F92112472
:101460002F933F934F935F936F937F938F939F93AC
:10147000AF93BF93EF93FF938BE696E00E949301A7
:10148000FF91EF91BF91AF919F918F917F916F915C
:101490005F914F913F912F910F900FBE0F901F9032
:1014A00018951F920F920FB60F9211242F938F93BE
:1014B0009F93EF93FF93E0917B06F0917C068081F0
:1014C000E0918106F091820682FD1BC0908180919F
:1014D00084068F5F8F7320918506821741F0E0911B
:1014E0008406F0E0E559F94F958F80938406FF91CB
:1014F000EF919F918F912F910F900FBE0F901F90A2
:1015000018958081F4CFCF92DF92EF92FF92CF9324
:10151000DF9300D000D000D0CDB7DEB7EBE6F6E029
:101520001382128288EE93E0A0E0B0E0848395837A
:10153000A683B78384E091E09183808385EC90E07B
:101540009587848784EC90E09787868780EC90E08D
:10155000918B808B81EC90E0938B828B82EC90E07E
:10156000958B848B86EC90E0978B868B118E128EF8
:10157000138E148EE8E0F7E086E191E0918380839A
:101580001282138214821582E6E1F7E09183808350
:101590001282138214821582EEE0F7E09183808339
:1015A0001282138214821582ECE1F7E0918380832A
:1015B0001282138214821582E2E2F7E09183808323
:1015C0001282138214821582E8E2F7E0918380830D
:1015D0001282138214821582E8E3F7E091838083FC
:1015E000128213821482158240EC4B8338EA3C83CA
:1015F00028E32D8356E65E83CB80DC80ED80FE8081
:10160000C0923407D0923507E0923607F092370740
:10161000EEE2F7E09183808342833383248389E67B
:10162000858326960FB6F894DEBF0FBECDBFDF913F
:10163000CF91FF90EF90DF90CF900895CF93DF93FD
:10164000CDB7DEB7CC5ED1090FB6F894DEBF0FBEC2
:10165000CDBF789484B5826084BD84B5816084BD3B
:1016600085B5826085BD85B5816085BD80916E0040
:10167000816080936E001092810080918100826071
:1016800080938100809181008160809381008091AE
:1016900080008160809380008091B100846080939D
:1016A000B1008091B00081608093B00080917A0099
:1016B000846080937A0080917A00826080937A00BF
:1016C00080917A00816080937A0080917A008068AE
:1016D00080937A001092C100E0917B06F0917C0625
:1016E00082E08083E0917706F09178061082E091A5
:1016F0007906F0917A0680E1808310928306E0916A
:101700007F06F091800686E08083E0917D06F0916F
:101710007E06808180618083E0917D06F0917E0667
:10172000808188608083E0917D06F0917E068081D3
:1017300080688083E0917D06F0917E0680818F7DB8
:10174000808387E691E00E940D08C0903407D09016
:101750003507E0903607F090370785E790E08C0F6B
:101760009D1F069624E3DC011D922A95E9F721ECE2
:1017700032E0E7963FAF2EAFE79721E933E0E996F5
:101780003FAF2EAFE99724E131E0EB963FAF2EAFAC
:10179000EB9721E0C355DF4F2883CD5AD04048EE68
:1017A00053E060E070E0C158DF4F488359836A839B
:1017B0007B83CF57D040CD57DF4F188219821A82D2
:1017C0001B82C358D040C957DF4F19821882C758AF
:1017D000D040C157DF4F19821882CF58D040CF5622
:1017E000DF4F19821882C159D04024E0CD56DF4F17
:1017F0002883C359D040CC56DF4F19821882C45970
:10180000D0406AE87DE00E9465038AE3FE01EB5860
:10181000FF4FDE01DB9601900D928A95E1F7EAE435
:10182000F3E08AE4DF011D928A95E9F78AE3FE017D
:10183000FB96DE01119601900D928A95E1F7E496F0
:101840008FADE497813009F426C180E791E00E94D2
:101850000D088AE493E0909395038093940341E00C
:1018600050E060E070E040939603509397036093DC
:1018700098037093990390939B0380939A0382E05B
:1018800090E0A0E0B0E080939C0390939D03A09330
:101890009E03B0939F030E94B100E2EAF3E080EC64
:1018A00092E0DF019C011D9221503040E1F78E0152
:1018B00001551F4F6E0139ECC30ED11C7E0181EC26
:1018C000E80EF11CD8011596C751DF4FB983A883E4
:1018D000C95ED040F7013296C551DF4FF983E883E6
:1018E000CB5ED04092EA292E93E0392E8AE991E02E
:1018F0000E940D0886EE90E0C752DF4F99838883DF
:10190000C95DD04089EF90E0C552DF4F998388834D
:10191000CB5DD040C352DF4F39822882CD5DD040AD
:1019200082EA91E00E943F08D8012C9311963C93E3
:10193000119712964C93129713965C9313971496E3
:101940006C9340E060E070E0CB010E946D08F8010C
:101950002583368347835087618788E0982ED60198
:10196000E92D1D92EA95E9F742E050E060E070E071
:10197000C8010E94FC03882309F4C4C084E090E0FD
:10198000D60117969C938E93169788E0F601DE0198
:10199000A754BF4F01900D928A95E1F788E0FE01B0
:1019A000E754FF4FDE01AF52BF4F01900D928A9571
:1019B000E1F7C952DF4F88819981C75DD040892BFB
:1019C00009F0ECC1CF52DF4FA880B980C15DD04093
:1019D000A114B10409F4E2C1CD52DF4F488059800F
:1019E0006A807B80C35DD04081EB91E00E940D084E
:1019F00081EE91E0F2E04F1651046104710409F0A8
:101A000020C1D5018C918F73843009F018C11196D3
:101A10008D909C90C4010E940D0862EA71E0C4019F
:101A20000E94400F892B09F0B3C1F50185818F73A6
:101A3000813009F0B0C186809780A084B1846BE5C5
:101A400072E08BE696E00E94B2072AE0B501A4019D
:101A50008BE696E00E94C1078FE892E00E940D0895
:101A6000A3019201C301B2010E941A0F86169706C4
:101A7000A806B90608F495C1C501B4010E94E90E93
:101A8000672B682B692B09F496C1FFEF4F1A5F0A89
:101A90006F0A7F0AE5CF89AF8AE3FE013196AAE497
:101AA000B3E001900D928A95E1F7C0928E03D09237
:101AB0008F03E0929003F09291038CE09AEA909366
:101AC0009303809392038EEF90E09093850380932D
:101AD000840382E091E090938703809386038AEFEA
:101AE00090E0909389038093880380E191E0909344
:101AF0008B0380938A038CE091E090938D03809315
:101B00008C03A7CE60919603709197038091980300
:101B10009091990341E00E946D08F7012083318381
:101B2000428353836483C752DF4FE881F981C95DE3
:101B3000D04046E050E060E070E0C352DF4F888163
:101B40009981CD5DD04009955C01DC011196FC9234
:101B5000EE9213961C930E931297C751DF4FE881B4
:101B6000F981C95ED0401596FC93EE931497BC01A1
:101B700080919403909195030E940E07882EC55280
:101B8000DF4FE881F981CB5DD040B501C352DF4F13
:101B900088819981CD5DD0400995811003C081E095
:101BA00090E0EECEF70111929A94E9F7AE01475218
:101BB0005F4FB70180919403909195030E941604A2
:101BC000D70116968C91169790E081110AC017964E
:101BD0008C911797813009F4D8CE823039F085E0A6
:101BE00090E0F6019783868388E0D1CEED91FC9159
:101BF00080818F73813099F74091960350919703BC
:101C0000609198037091990381819281A381B4813D
:101C1000481759076A077B0711F73596D601ED93E8
:101C2000FC93F70182819381A481B5810197A10979
:101C3000B109F60182839383A483B583D5CF86E06F
:101C400092E00E940D08D101ECEBF2E01D92319779
:101C5000E9F710925E0610925F06109260061092ED
:101C6000610680B3A1B2BA2CA82E8091A0039091F6
:101C7000A1038A159B0509F46DC099249394892BBF
:101C800009F4912C86EF92E00E943F08D8012C9332
:101C900011963C93119712964C93129713965C935E
:101CA000139714966C9383E0C551DF4FE881F98157
:101CB000CB5ED04011928A95E9F785E8D7018C93E5
:101CC00011969C9285E0F701DE01A152BF4F019071
:101CD0000D928A95E1F785E0FE01E152FF4FDE01AA
:101CE000AC51BF4F01900D928A95E1F785E0FE015E
:101CF000EC51FF4FD801159601900D928A95E1F7AE
:101D000042E050E060E070E0C8010E94FC038823DC
:101D100041F0AE0147525F4FB8018AE993E00E945B
:101D2000A40868E073E08BE696E00E94B207492DB4
:101D300050E070E060E02AE08BE696E00E94C10788
:101D400068E171E08BE696E00E94B207B092A103D1
:101D5000A092A003F1012CEB32E01192215030400F
:101D6000E1F710925E0610925F06109260061092E4
:101D700061060E94B10080E090E0892B09F4B6CDA5
:101D80000E947F01882309F4ADCD0E940000AACDF6
:101D900082E492E056CF89E992E053CF84ED92E05D
:101DA00050CF23E333E0B501A401CE0187529F4F0A
:101DB0000E94080948CF2CE333E0F5CF0E940B0FB7
:101DC000A59F900DB49F900DA49F800D911D11248F
:101DD0000895A1E21A2EAA1BBB1BFD010DC0AA1F6C
:101DE000BB1FEE1FFF1FA217B307E407F50720F084
:101DF000A21BB30BE40BF50B661F771F881F991FFF
:101E00001A9469F760957095809590959B01AC0147
:101E1000BD01CF010895A29FB001B39FC001A39F50
:101E2000700D811D1124911DB29F700D811D112413
:101E3000911D0895DB018F939F930E94DE0EBF9149
:101E4000AF91A29F800D911DA39F900DB29F900D09
:101E5000112408950E940B0FB7FF0895821B930B66
:101E60000895EE0FFF1F0590F491E02D0994FB01FA
:101E7000DC0102C001900D9241505040D8F7089506
:101E8000FB01DC018D91019080190110D9F3990BB0
:061E90000895F894FFCF55
:101E960000000000B5011501420102027301510163
:101EA60065010000000097090D0A004170706C6919
:101EB600636174696F6E206F6E652068617320734D
:101EC600656E6420616E20696E666F726D617469FD
:101ED6006F6E207468617420746865206E756D621B
:101EE600657220002069732000207769746820736A
:101EF600746174757320005374617274696E67003F
:101F06004170706C69636174696F6E20636F6E7483
:101F160065787420696E697469616C697A6174693F
:101F26006F6E206661696C656400576F726B696ECF
:101F36006700636865636B5F69665F7072696D658C
:101F460000476F74207461736B20666F7220617036
:101F5600706C69636174696F6E20312066726F6D93
:101F660020746865207475706C6520737061636594
:101F7600004572726F722C20676F74207475706CD6
:101F860065207769746820696E76616C6964206C77
:101F9600656E677468004572726F722C207468658E
:101FA600207475706C6520646F6573206E6F742085
:101FB600636F6E7461696E20737472696E672061F7
:101FC600742074686520666972737420706C61632E
:101FD60065004572726F722C20696E76616C696459
:101FE600207461736B206E616D65004170706C6961
:101FF600636174696F6E207461736B20686173200E
:102006007265636569766564207461736B20746FAD
:1020160020636865636B206966207468652000200C
:102026006973207072696D65004572726F722C203B
:10203600746865207475706C6520646F6573206EB6
:102046006F7420636F6E7461696E2075696E74209B
:10205600617420746865207365636F6E6420706CAC
:10206600616365004469646E277420676F74207429
:1020760061736B20666F72206170706C6963617446
:10208600696F6E203100646972656374696F6E5F93
:102096006368616E6765640053656E6420475049E6
:1020A6004F2070696E20646972656374696F6E2073
:1020B6006368616E676520776974682076616C7500
:1020C60065200069735F7072696D650069735F6E84
:0A20D6006F745F7072696D650000A1
:00000001FF
